:020000040800F2
:10000000100700204501000855220008FD130008D4
:1000100051220008630E0008C72B000800000000F2
:10002000000000000000000000000000FD270008A4
:100030006B0F00080000000057220008E9280008A4
:100040005F0100085F0100085F0100085F01000810
:100050005F0100085F0100085F0100085F01000800
:100060005F0100085F0100085F0100085F010008F0
:100070005F0100085F0100085F0100085F010008E0
:100080005F0100085F0100085F0100085F010008D0
:100090005F0100085F0100085F0100085F010008C0
:1000A0005F0100085F0100085F0100085F010008B0
:1000B0005F0100085F0100085F0100085F010008A0
:1000C0005F0100085F0100085F0100085F01000890
:1000D0005F0100085F0100085F0100085F01000880
:1000E0005F0100085F0100085F0100085F01000870
:1000F0005F0100085F0100085F0100085F01000860
:100100005F0100085F0100085F0100085F0100084F
:100110005F0100085F0100085F0100085F0100083F
:100120005F0100085F0100085F0100085F0100082F
:10013000DFF80CD000F0F4FA00480047553A000808
:10014000100700200648804706480047FEE7FEE704
:10015000FEE7FEE7FEE7FEE7FEE7FEE7FEE7FEE777
:10016000ED28000831010008D2B201E000F8012BAF
:10017000491EFBD270470022F6E710B513460A4627
:1001800004461946FFF7F0FF204610BD421C10F848
:10019000011B0029FBD1801A7047F0B480EA0102EC
:1001A000D40F4200B2EB410F02D20246084611467C
:1001B0004A0042D0C30DDDB2C1F3C752AD1A202DA3
:1001C00035DAC1F3160141F4000204B15242C5F11F
:1001D000200602FA06F12A411044B3EBD05F23D087
:1001E000C4B1012DA0EBC35009DCF0BC4FF00042BC
:1001F00002EAC352DBB200F5000000F006BA40008C
:1002000000F1807000EBC350A0F1807040EAD17023
:10021000490009E0490841EAC071A0EBC35000F56C
:100220000000400800EBC350F0BC00F0E5B96142AB
:10023000012202EB4101001BF6E7F0BC704781F0A0
:100240000041AAE780F00040A7E780EA010210B56C
:1002500002F00043400022D04A001FD0010E01EB03
:100260001261C0F35600C2F3560240F4000042F49B
:100270000002A0FB022000047F39140400D0401CBF
:1002800050EA124001D44000491EC2B20C0604EBF1
:10029000D010401C4008802A02D003E0002010BD8E
:1002A00020F00100002900DA0020184310BD30B40E
:1002B00080EA010202F0004530F0004221F00040E7
:1002C00013D090B1C30DD40DC2F31601C0F31600C4
:1002D000E41A41F4000140F400027D34914201D35C
:1002E000641C00E04900002C02DA30BC002070479A
:1002F0004FF400000023914201D3891A03434008C0
:100300004FEA4101F7D151B1914202D14FF0004182
:1003100005E002D24FF0010101E06FF0010103EBB3
:10032000C450284430BC00F067B92DE9FE4F81EA83
:10033000030404F0004421F0004100944FF0000B4E
:1003400023F0004350EA01045ED052EA03045BD07C
:10035000C3F30A54C1F30A552C44A4F2F3340194B4
:10036000A0FB0254C1F3130141F48011C3F3130342
:1003700043F4801301FB024400FB034E840A970AF6
:1003800044EA815447EA8357A4FB076802958D0A23
:1003900005FB07854FEA932C04FB0C542705029DAF
:1003A0004FEA065847EA1637B5EB08056EEB070C1F
:1003B000870E920E47EA811742EA8312A7FB0201D9
:1003C000B6EB0B0164EB00042B0D43EA0C335E1813
:1003D00044EB1C50DA465146E7FB0201C5F3130417
:1003E0004FEA0B3343EA14534FEA0432019C43EAC9
:1003F0000603A4F10C040294009CCDE900B400F0C3
:1004000041F903B0BDE8F08F00200146F9E72DE97E
:10041000F04D81EA030404F0004B21F0004514463E
:100420004FF0000A23F0004150EA050220D054EAC0
:1004300001021DD0C5F30A570246C5F31303C1F3E9
:100440001300C1F30A5640F4801543F48013A7EB60
:100450000608101BD64608F2FD3873EB050002D3E0
:1004600008F1010801E092185B41B8F1000F03DACE
:1004700000200146BDE8F08D00204FF480110646B3
:1004800084460EE0171B73EB050705D3121B63EBC5
:10049000050306434CEA010C49084FEA3000921864
:1004A0005B4150EA0107EDD152EA030012D082EA23
:1004B000040083EA0501084305D0101BAB4106D2B6
:1004C0000122002306E000224FF0004302E06FF01B
:1004D000010253101AEB06004CEB085110EB0A0016
:1004E00041EB0B01BDE8F04D00F0BDB8C10F80EA53
:1004F000E0700844CA079623002100F086B800F097
:10050000004220F00040C10DC0F3160040F400008E
:100510007F2901DA00207047962903DCC1F196019A
:10052000C84001E096398840002AF4D04042704724
:1005300020F00040C10DC0F3160040F400007F29F8
:1005400001DA00207047962903DCC1F19601C8400A
:10055000704796398840704700F0004230F0004004
:100560000AD0C10D01F56071C0F3160042EA0151D5
:10057000C20840071143704700200146704701F050
:10058000004330B421F0004150EA010206D00A0DC8
:10059000A2F56072C1F31301002A02DC30BC002016
:1005A0007047440F44EAC104C100E01830BC00EBBE
:1005B000C25000F021B80000002801DBC0F100406B
:1005C000002901DBC1F100418142704730B50B4683
:1005D000014600202022012409E021FA02F59D4273
:1005E00005D303FA02F5491B04FA02F52844151E47
:1005F000A2F10102F1DC30BD0029A8BF7047401C08
:10060000490008BF20F00100704710B4B0FA80FC28
:1006100000FA0CF050EA010404BF10BC704749B165
:10062000CCF1200421FA04F411FA0CF118BF0121D5
:1006300021430843A3EB0C01CB1D4FEA00614FEAB5
:10064000102042BF002010BC704700EBC350104484
:100650000029A4BF10BC7047401C490008BF20F00F
:10066000010010BC704710B5141E73F1000408DAC5
:10067000401C41F1000192185B411A4301D120F066
:10068000010010BD2DE9F04D92469B4611B1B1FA23
:1006900081F202E0B0FA80F22032904600F052F887
:1006A00004460F4640EA0A0041EA0B0153465A4607
:1006B000084313D0114653EA010019D0C8F1400293
:1006C000504600F04EF805460E4650465946424602
:1006D00000F038F8084305D0012004E020463946F0
:1006E000BDE8F08D0020054346EAE0762C43374311
:1006F0000A986305E40AA0EB08000022FD0A44EA18
:1007000047540A3002D500200146E9E701051019D7
:100710006941DDE9084500196941BDE8F04DA2E7EE
:10072000064C074D06E0E06840F0010394E807003E
:1007300098471034AC42F6D3FFF7FEFC58E40608A5
:1007400078E40608202A04DB203A00FA02F10020AF
:1007500070479140C2F1200320FA03F319439040FF
:100760007047202A04DB203A21FA02F0002170476A
:1007700021FA02F3D040C2F1200291400843194609
:10078000704770B58C1810F8015B15F0070301D1A4
:1007900010F8013B2A1106D110F8012B03E010F8E4
:1007A000016B01F8016B5B1EF9D12B0705D4002307
:1007B000521E0DD401F8013BFAE710F8013BCB1AA9
:1007C000921C03E013F8015B01F8015B521EF9D59E
:1007D000A142D8D3002070BD0146072913D2DFE81B
:1007E00001F00406080A0C0E10000848704708487B
:1007F000FCE70848FAE70848F8E70848F6E7084839
:10080000F4E70848F2E70148F0E70000BC7500088B
:100810001C6001087C4A0208DC3403083C1F040801
:100820009C090508FCF3050810B5002000F024FA27
:1008300000F0AEF900214FF4FC6001F0F3FC04A2DB
:10084000E621122000F0D0FE00F08CFA10BD00006E
:1008500041493A20D0DDCFA2D6D0000010B50446E1
:10086000072C24D2DFE804F023221C0A041016000F
:10087000042210A117A000F04DF919E005221AA1D9
:1008800024A000F047F913E0022228A131A000F0D3
:1008900041F90DE0032234A13BA000F03BF907E051
:1008A00005223EA146A000F035F901E000E000BFBE
:1008B00000BF10BD492067656E746C7920636F6D51
:1008C0006520636C6F73657220746F20796F752E6D
:1008D0000A000000C4E3A3BAC7E1C7E1BFBFBDFC83
:1008E000C1CBCBFD00000000492077616E742079F8
:1008F0006F7520746F207374617920776974682034
:100900006D6520666F722061207768696C652E0ABC
:1009100000000000C4E3A3BACFEBC8C3CBFDC5E31E
:10092000C4E3D2BBBBE1B6F9000000004920776107
:100930006E7420746F206D616B6520796F75206116
:10094000206C6974746C6520686170706965722EC2
:100950000A000000C4E3A3BACFEBC8C3CBFDBFAA13
:10096000D0C4D2BBB5E3000049206665656C206148
:10097000206C6974746C6520746972656420746F8E
:100980006461792E0A000000C4E3A3BABDF1CCEC87
:10099000D3D0B5E3C0DBC1CB0000000049207761B4
:1009A0006E7420746F207374617920717569657439
:1009B0006C79207769746820796F752E0A000000C1
:1009C000C4E3A3BAB0B2BEB2B5D8C5E3D7C5CBFDB8
:1009D0000000000010B50446012C06D0022C07D000
:1009E000032C08D0042C0CD108E000F04FF809E0EB
:1009F00000F060F806E000F073F803E0FFF714FF82
:100A000000E000BF00BF10BD10B50D480D490978CA
:100A100000EBC104207900F02FF9206800F06CF998
:100A200008480078401C07490870084600780A28E2
:100A300001D30020087001200349087010BD000098
:100A4000180100206C0100206D01002000200249E7
:100A50000860024908707047680100206D0100209D
:100A600010B508480068401C064908600846006840
:100A70000549884204D3002002490860FFF7C4FFFB
:100A800010BD00006801002000350C0010B50848BA
:100A90000078401C0649087008460078102801D3E9
:100AA00000200870002000F0E7F800F05BF910BDAE
:100AB0001401002010B50948007818B90F20074923
:100AC000087004E005480078401E044908700020C2
:100AD00000F0D2F800F046F910BD0000140100202B
:100AE00010B50A4B0A4C247803EB04131A7B074B0E
:100AF000074C247803EB04139968044B044C2478C6
:100B000003EB0413586800F005F810BD1400002032
:100B10001401002070B5A0B006460C4615463046BC
:100B200000F050F9012000F0A7F810A000F0CCF878
:100B300001F028FF204601F061FF6FF07D42802127
:100B4000684601F02DFF30B1284600F095F8684660
:100B500000F0D2F805E0032000F08EF807A000F0C6
:100B6000B3F800F0FFF820B070BD000041493A2012
:100B7000D5FDD4DACBBCBFBC2E2E2E0041493A2085
:100B800045535033322054696D656F757400000011
:100B900010B500214FF6FF7001F044FB4623D82228
:100BA000D6210C2000F03EFC10BD000008B500214D
:100BB0004FF6FF7001F036FB154803881548028890
:100BC0000021084600F02EFC1F2001F03BFB002016
:100BD0009A23CC2203210090122000F0C5FD4FF68D
:100BE000FF7001F02FFB00205F23DC22B921009071
:100BF0000A2000F0B9FD47F6FF7001F023FB4FF427
:100C00008E73044802881946002000F05DFD08BD7F
:100C1000720100207001002010B500214FF6FF7016
:100C200001F000FB0A4803880A48028800210846B0
:100C300000F0F8FBFFF7BAFF002000F01DF806A057
:100C400000F0C0F807A000F03FF800F08BF810BDEE
:100C50007201002070010020557365723A20C4E3D0
:100C6000BAC3000041493A20CED2CAC7C4E3B5C4D2
:100C70004149BBEFB0E9000070B505462846FFF7D3
:100C8000ABFD064600214FF6FF7001F0CBFA96232C
:100C9000C8220521142000F0C5FB9623C822052197
:100CA000142000F03DFF2C20C1060880002404E041
:100CB00036F8140003490880641C47F2305084421F
:100CC000F6D370BD0000026010B5044600214FF657
:100CD000FF7001F0A7FA2D23D822E8210C2000F0A4
:100CE000A1FB00214FF4FC6001F09CFA2246EC21AC
:100CF000122000F079FC10BD30B5A9B005460020E7
:100D00008DF854008DF80400C82215A9284600F07B
:100D1000F1F80446207820B1C82201A9204600F04D
:100D2000E9F800214FF6FF7001F07CFA2D23D8225C
:100D3000E8210C2000F076FB00214FF4FC6001F06C
:100D400071FA15AAEC21122000F04EFC9DF8040067
:100D500028B101AA4FF48071122000F045FC29B09F
:100D600030BD000010B500214FF6FF7001F05AFAB7
:100D70001C23E6224FF49071052000F053FB002164
:100D800047F6FF7001F04EFA0BA24FF49271082063
:100D900000F02AFC00214FF6E07001F043FA07480A
:100DA0000749097800EB01104FF4927102682D2079
:100DB00000F01AFC10BD0000CBB53A001400002072
:100DC0001401002030B5A9B0054600208DF854006C
:100DD0008DF80400C82215A9284600F08BF80446B7
:100DE000207820B1C82201A9204600F083F8002114
:100DF0004FF6FF7001F016FA2A23D822BE210C20EC
:100E000000F010FB00214FF6E07001F00BFA15AA7C
:100E1000C021122000F0E8FB9DF8040020B101AAD7
:100E2000D421122000F0E0FB29B030BD18E00026EC
:100E300001F080F9044600F085FA054614B1012658
:100E4000FFF704FE15B10126FFF700FE2046FFF76D
:100E5000C1FD2846FFF702FD0EB9FFF701FE00BFF6
:100E6000E5E700BFFEE7000038B505460C46002068
:100E7000009001F041FB01229102684601F082FAE4
:100E80009DF80000A52801D0012000E00020012CE1
:100E900001D1012100E00021084308B39DF80000C2
:100EA000A52806D1012C04D1C022E102104801F08E
:100EB00069FA00BF284602F035F90028FAD0002070
:100EC00001F0C8FBA520009001229102684601F0C4
:100ED00081FAC0224FF40061054801F07BFA05E079
:100EE000C0224FF40061024801F04CFA38BD000006
:100EF000A0010020F0B51446002200232EE0057862
:100F0000802D1ADB467806B92BE002F11006A642C6
:100F100000DD26E090F800C01E465F1CBBB201F861
:100F200006C090F801C01E465F1CBBB201F806C0A7
:100F3000801C02F11006B2B20FE002F10806A642D0
:100F400000DD0EE090F800C01E465F1CBBB201F849
:100F500006C0401C02F10806B2B200BF0578002DA1
:100F6000CDD100BF0025CD54F0BD704701B500BF05
:100F70000098411E00910028FAD108BD51B18200AD
:100F8000A2F1C042126842F001038200A2F1C04205
:100F9000136009E08200A2F1C0421268034B1A40BC
:100FA0008300A3F1C0431A6070470000FEFF0F00EA
:100FB000D0E901121143C268114302691143426929
:100FC000114382691143C2691143026A1143426AA3
:100FD0001143826A1143C26A1143026B11430268D2
:100FE0009200A2F1C0421160816808290BD101680A
:100FF0008900A1F1C041096841F0400201688900FF
:10100000A1F1C0410A60416B0968426B526841EA34
:101010000211426B926841EA0221426B928941EAD5
:101020000241426B128A41EA0251426B127D41EA4F
:101030000261426B926911430268521C9200A2F154
:10104000C0421160C16AB1F5804F1BD1816B096844
:10105000826B526841EA0211826B926841EA022176
:10106000826B128A41EA0251826B127D41EA02616F
:10107000826B9269114302689200A2F1C042C2F8E9
:10108000041107E06FF0704201688900A1F1C041CE
:10109000C1F8042170472DE9F041024600250026E1
:1010A000002000230024002791F803C00CF00F0556
:1010B00091F803C00CF0100CBCF1000F03D091F8B4
:1010C00002C04CEA050591F800C0BCF1000F31D018
:1010D000146800202BE04FF0010C0CFA00F3B1F87B
:1010E00000C00CEA03069E4220D183004FF00F0C93
:1010F0000CFA03F7BC4305FA03FC4CEA040491F82C
:1011000003C0BCF1280F06D14FF0010C0CFA00FC13
:10111000C2F814C00AE091F803C0BCF1480F05D131
:101120004FF0010C0CFA00FCC2F810C0401C08285B
:10113000D1D31460B1F800C0BCF1FF0F34DD5468A6
:1011400000202EE000F1080C4FF0010808FA0CF323
:10115000B1F800C00CEA03069E4221D183004FF093
:101160000F0C0CFA03F7BC4305FA03FC4CEA040429
:1011700091F803C0BCF1280F05D100F1080C08FA62
:101180000CF8C2F8148091F803C0BCF1480F07D1E5
:1011900000F1080C4FF0010808FA0CF8C2F81080B2
:1011A000401C0828CED35460BDE8F08102460020E0
:1011B00093680B400BB1012000E0002070474161B3
:1011C000704701617047000030B51C4A1288202A20
:1011D00000DB30BD194A1288002A1DDD174C248817
:1011E000641E174D35F82440041B22B2134C24888A
:1011F000641E05EB840464880C1B23B2002A01DA08
:10120000544222B2002B01DA5C4223B2032A02DAF2
:10121000032B00DADDE700BF094A084B1B8822F8E0
:101220002300064B1B8802EB83025180034A12887D
:10123000521C024B1A8000BFCBE700007002002056
:101240008C0200202DE9F0412A480088022808DAA3
:1012500029480088502802DD0220BDE8F0810120E5
:10126000FBE72648B0F90060B0F902502148008839
:10127000401EDFF8888038F920701E480088401E24
:1012800008EB8000B0F902C0B81B03B2ACEB05005C
:1012900004B2002B01DB184600E0584201B2002CDA
:1012A00001DB204600E0604202B2192909DA192A5E
:1012B00007DA11480088502801DD0220CDE701201F
:1012C000CBE7372908DDB1EB420F05DD002B01DD4F
:1012D0000420C2E70320C0E7372A08DDB2EB410F44
:1012E00005DD002C01DD0620B7E70520B5E700206D
:1012F000B3E7000070020020740200208C0200207E
:1013000010B500F001F810BD002008E00021094AE6
:1013100022F8201002EB80025180411C88B2202864
:10132000F4DB0021044A1180044A1180044A117040
:10133000704700008C020020700200207402002020
:10134000720200201CB510211348FFF72FFFA0B92F
:1013500001201249087012480088401C104908807A
:101360001049684601F030FD28B1BDF90210BDF901
:101370000000FFF729FF00201CBD0848007848B195
:10138000002006490870FFF75DFF0446FFF7BCFF29
:101390002046F1E70020EFE700180140720200202C
:1013A00074020020A00100202DE9F04180460C4687
:1013B0001048007820B901F09FF801200D4908700D
:1013C0002512E6B2A5F1A101C1EB011202EB411118
:1013D00006EB4101A1390802C11700EB5171CF1092
:1013E000054839182022404600F0CCFF0020BDE817
:1013F000F0810000980100200030180000BFFEE7D7
:1014000010B504462CB14FF480510548FFF7D7FEC4
:1014100004E04FF480510248FFF7D3FE10BD0000F6
:10142000001401402DE9F04106460F4614461D46C2
:101430002B4622463946304600F072FB04FB05F08D
:101440000249098800F00BFABDE8F0817E01002016
:1014500001B502E00098401E009000980028F9D1E4
:1014600008BD00002DE9F04389B080468946174643
:1014700010231A464946404600F052FB2C2000F04B
:101480001FFE394601A8FFF78FFF002422E001A8C4
:1014900010F814604FF6FF7000EA0626012000EBFA
:1014A000440001A9085C064300250FE04FF400400A
:1014B0002841304020B10A48008800F005FE03E0D2
:1014C0000848008800F000FE681CC5B2102DEDDB56
:1014D000601CC4B2102CDADB09B0BDE8F083000058
:1014E0007C0100207E0100202DE9F05F80468946C6
:1014F0001646A6F120001FFA80FA1E49096889885D
:101500001C4A1268D28801FB02F0C11700EB51712E
:10151000C1F3C7071748006800680AFB070B1548A6
:101520000068C3881348006882884946404600F036
:10153000F7FA2C2000F0C4FD002416E0002510E08E
:101540001BF8040080212941084020B10A48008886
:1015500000F0BAFD03E00948008800F0B5FD681C02
:10156000C5B2082DECDB601CC4B2BC42E6DBBDE8B2
:10157000F09F0000780100207C0100207E01002007
:1015800070B504460D46002624E03046134909682C
:101590008988084412490988884205DD00260F48D9
:1015A0000068C088204484B220460C490968C98874
:1015B00008440C490988884201DD002600242A7865
:1015C00021463046FFF790FF6D1C04480068808874
:1015D000304486B228780028D7D170BD7801002029
:1015E00070010020720100202DE9F04105460E46F1
:1015F000144648E020787E2825DC284624490968DE
:101600008988084423490988884205DD0025204847
:101610000068C088304486B230461D490968C988D0
:1016200008441D490988884201DD002500262278EA
:1016300031462846FFF758FF15480068808828443F
:1016400085B2641C1FE02846103012490988884280
:1016500003DD002506F1100086B2304610300E4939
:101660000988884201DD002500262788380200EB22
:10167000272087B23A4631462846FFF7F3FE05F1A8
:10168000100085B2A41C20780028B3D1BDE8F081F9
:1016900078010020700100207201002070B504461E
:1016A0000D4604F10A018AB2143988B22B46294644
:1016B00000F00AF805F10A0083B2143881B222461C
:1016C000204600F001F870BD2DE9FF4F83B0814640
:1016D0004FF0000AD3460598A0EB09050499069837
:1016E000461ACDF8049004980090002D01DD0127E2
:1016F00005E00DB9002702E04FF0FF376D42002EE4
:1017000002DD4FF0010806E016B94FF0000802E0D4
:101710004FF0FF387642B54201DD2C4600E03446FA
:101720000020029019E0DDE9001000F0ADFCAA44B1
:10173000B344A24505DDAAEB040A0198384480B2FF
:101740000190A34505DDABEB040B0098404480B24B
:1017500000900298401C80B20290611C029888425E
:10176000E1DD07B0BDE8F08F2DE9F04104460D46FC
:1017700016461F46DDF81880B8F1000F0CD03B4626
:1017800032462946204600F0CBF906FB07F0174900
:10179000098800F064F827E0A019401E82B22B46A9
:1017A00029462046FFF790FFE819401E83B2A01992
:1017B000401E82B2E819401E81B22046FFF784FF26
:1017C000E819401E83B2224629462046FFF77CFFD7
:1017D000E919491E8BB2A119491E8AB2A119491EE5
:1017E00088B22946FFF770FFBDE8F0817C01002038
:1017F00000B597B03C2108A8FEF7BDFC1C2101A84C
:10180000FEF7B9FC0121080200F026FD012001903D
:101810000420039080060790002002900490059019
:1018200006900890099008200A9010200B90002044
:101830000C900E900F9010904FF48050119000205B
:1018400012901390149001A81590169008A8FFF715
:10185000AFFB01210020FFF791FB17B000BD70B571
:1018600004460D4600262C2000F02AFC00BF03E0B1
:10187000284600F029FC761CA642F9D370BD000072
:1018800008B50121602000F0F7FC03208DF802006C
:1018900018208DF803004FF48040ADF80000694631
:1018A0005B48FFF7F8FB4FF40040ADF800006946D5
:1018B0005748FFF7F0FB0120ADF800006946544897
:1018C000FFF7E9FB0220ADF8000069465048FFF73A
:1018D000E2FB8020ADF8000069464E48FFF7DBFBD5
:1018E0004FF48070ADF8000069464A48FFF7D3FB1B
:1018F0004FF40070ADF8000069464648FFF7CBFB97
:101900004FF48060ADF8000069464248FFF7C3FB22
:101910004FF40060ADF8000069463E48FFF7BBFB9E
:101920004FF48050ADF8000069463A48FFF7B3FB2A
:101930004FF40050ADF8000069463648FFF7ABFBA6
:101940004FF48040ADF8000069463248FFF7A3FB32
:101950004FF40040ADF8000069462E48FFF79BFBAE
:101960004FF48070ADF8000069462948FFF793FBFB
:101970004FF40070ADF8000069462548FFF78BFB77
:101980004FF48060ADF8000069462148FFF783FB03
:1019900003208DF8020018208DF803001020ADF808
:1019A000000069461A48FFF776FB2020ADF80000DA
:1019B00069461748FFF76FFB8020ADF800006946C5
:1019C0001348FFF768FB4FF40060ADF8000069466C
:1019D0000F48FFF760FB10208DF8030003208DF8FF
:1019E00002000220ADF8000069460A48FFF753FBE9
:1019F00010208DF8030003208DF802004FF4805072
:101A0000ADF8000069460248FFF745FB08BD00003D
:101A1000001401400018014010B50446072C00DDF9
:101A200010BD31480470204604EBD0714910A4EB7E
:101A3000410139B9F0202D4908804FF4A0702C499C
:101A4000088006E04FF4A07028490880F02028495B
:101A50000880362000F034FB2648008849F24131E6
:101A6000884205D1082141EA441000F02DFB0AE02C
:101A70002048008848F25251884204D1002141EAAE
:101A8000441000F021FB2A2000F01AFB002000F097
:101A90001BFB002000F018FB14490988491EC1F304
:101AA000072000F011FB11490978491EC8B200F067
:101AB0000BFB2B2000F004FB002000F005FB0020B6
:101AC00000F002FB0A490988491EC1F3072000F013
:101AD000FBFA07490978491EC8B200F0F5FA2C2034
:101AE00000F0EEFA00BF9BE77401002070010020B7
:101AF000720100207601002010B5FFF7C1FEFFF74C
:101B000077FE0120FFF77CFC00F0A0FA00F038F827
:101B100002480078FFF780FF10BD0000740100202C
:101B20002DE9F04104460D4616461F462A2000F0D6
:101B3000C7FA201200F0C8FAE0B200F0C5FAA11905
:101B4000491EC1F30F2000F0BFFAA119491EC8B207
:101B500000F0BAFA2B2000F0B3FA281200F0B4FA21
:101B6000E8B200F0B1FAE919491EC1F30F2000F004
:101B7000ABFAE919491EC8B200F0A6FABDE8F08137
:101B800010B500F025FAFE4908800846008849F2A1
:101B9000413188427ED1CF2000F092FA002000F03F
:101BA00093FA812000F090FA302000F08DFAED20B9
:101BB00000F086FA642000F087FA032000F084FA2F
:101BC000122000F081FA812000F07EFAE82000F077
:101BD00077FA852000F078FA102000F075FA782066
:101BE00000F072FACB2000F06BFA392000F06CFAAA
:101BF0002C2000F069FA002000F066FA342000F092
:101C000063FA062000F060FAF72000F059FA20206D
:101C100000F05AFAEA2000F053FA002000F054FADB
:101C2000002000F051FAB12000F04AFA002000F044
:101C30004BFA1B2000F048FAB62000F041FA0A20C7
:101C400000F042FAA22000F03FFAC02000F038FA7B
:101C5000352000F039FAC12000F032FA112000F0EE
:101C600033FAC52000F02CFA452000F02DFA45206B
:101C700000F02AFAC72000F023FAA22000F024FA8C
:101C8000F22000F01DFA002000F01EFA262000F0DD
:101C900017FA00E096E0012000F016FAE02000F0CC
:101CA0000FFA0F2000F010FA262000F00DFA242081
:101CB00000F00AFA0B2000F007FA0E2000F004FAF8
:101CC000092000F001FA542000F0FEF9A82000F0ED
:101CD000FBF9462000F0F8F90C2000F0F5F9172088
:101CE00000F0F2F9092000F0EFF90F2000F0ECF914
:101CF000072000F0E9F9002000F0E6F9E12000F00B
:101D0000DFF9002000F0E0F9192000F0DDF91B20D8
:101D100000F0DAF9042000F0D7F9102000F0D4F92F
:101D2000072000F0D1F92A2000F0CEF9472000F07A
:101D3000CBF9392000F0C8F9032000F0C5F90620DE
:101D400000F0C2F9062000F0BFF9302000F0BCF925
:101D5000382000F0B9F90F2000F0B6F9362000F075
:101D6000AFF9C82000F0B0F92A2000F0A9F900204E
:101D700000F0AAF9002000F0A7F9002000F0A4F973
:101D8000EF2000F0A1F92B2000F09AF9002000F0DC
:101D90009BF9002000F098F9012000F095F93F2010
:101DA00000F092F93A2000F08BF9552000F08CF900
:101DB000112000F085F97348FFF74AFB292000F055
:101DC0007FF901E16E48008848F252518842F8D10B
:101DD000CF2000F075F9002000F076F9C12000F066
:101DE00073F9302000F070F9ED2000F069F96420FB
:101DF00000F06AF9032000F067F9122000F064F99E
:101E0000812000F061F9E82000F05AF9852000F007
:101E10005BF9102000F058F9782000F055F9CB203C
:101E200000F04EF9392000F04FF92C2000F04CF969
:101E3000002000F049F9342000F046F9022000F0BB
:101E400043F9F72000F03CF9202000F03DF9EA20AA
:101E500000F036F9002000F037F9002000F034F9E6
:101E6000C02000F02DF9212000F02EF9C12000F053
:101E700027F9112000F028F9C52000F021F92D20C4
:101E800000F022F9332000F01FF9362000F018F995
:101E9000002000F019F93A2000F012F9552000F066
:101EA00013F9B12000F00CF9002000F00DF9172013
:101EB00000F00AF9B62000F003F90A2000F004F956
:101EC000A22000F001F9F62000F0FAF8012000F05D
:101ED000FBF8302000F0F8F8F22000F0F1F80020D4
:101EE00000F0F2F8262000F0EBF8012000F0ECF80A
:101EF000E02000F0E5F8D02000F0E6F8002000F047
:101F0000E3F8022000F0E0F8072000F0DDF80B20F5
:101F100000F0DAF81A2000F0D7F8312000F0D4F8F9
:101F2000542000F0D1F8402000F0CEF8292000F035
:101F3000CBF8122000F0C8F8122000F0C5F81220EB
:101F400000F0C2F8172000F0BFF8E12000F0B8F868
:101F5000D02000F0B9F8002000F0B6F8022000F020
:101F6000B3F8072000F0B0F8052000F0ADF8252008
:101F700000F0AAF82D2000F0A7F8442004E00000AB
:101F800076010020FCBF020000F09EF8452000F022
:101F90009BF81C2000F098F8182000F095F8162007
:101FA00000F092F81C2000F08FF81D2000F08CF853
:101FB000112000F085F80548FFF74AFA292000F0C3
:101FC0007FF82C2000F07CF810BD0000FCBF020060
:101FD00010B50024042000F073F800BF17480088F3
:101FE00000BF1648008800F02BF804464FF6FF703B
:101FF00000EA042400F024F8044348F252508442DA
:1020000001D1204610BDD32000F05AF800BF0B4884
:10201000008800BF0948008800F012F804464FF617
:10202000FF7000EA042400F00BF8044349F2413049
:10203000844201D12046E5E70020E3E7000002608A
:1020400001480088704700000000026010B50221BE
:102050000748FFF7B4F840F6FF20FFF7F9F902212F
:102060000348FFF7AEF840F6FF20FFF7F1F910BD87
:102070000018014070B504460D4601231A46294652
:102080002046FFF74DFD70BD70B505460C4609486A
:10209000008885420CDA08480088844208DA214624
:1020A0002846FFF7E7FF054801880120FFF7D7FB27
:1020B00070BD000070010020720100207C01002032
:1020C0004FF0C04108807047014908807047000008
:1020D0000000026008B50121142000F0CDF80120B5
:1020E000ADF8000004208DF8030069460D48FEF7A6
:1020F000D2FF4FF40050ADF8000004208DF803002B
:1021000069460948FEF7C7FF002008490870487073
:1021100048808880887106490870487048808880A7
:10212000887108BD000801400010014076020020BF
:102130007E02002070B501210E4800F023F805460C
:102140000223012229460C4800F028F804460CB16D
:10215000204670BD4FF40051084800F013F80546C2
:10216000042303222946064800F018F804462046B6
:10217000EFE7000000080140760200200010014057
:102180007E02002070B504460D4629462046FFF722
:102190000DF8012800D170BD0020FCE770B50446A1
:1021A0002078884203D021700020608070BD608854
:1021B000C82804DA6088401C60800020F6E7607858
:1021C00088421BD061706078012803D10020A08074
:1021D000A071EBE7607880B9A5884CF25036B54223
:1021E00001DB184605E0A588002D01DD104600E062
:1021F00000200025A580A571D8E700BF60780128E0
:1022000007D1A0884FF6FF75A84202DAA088401CCB
:10221000A0800020CAE70000014800687047000065
:1022200078010020024A1080024A118070470000A5
:102230007C0100207E0100200149086070470000F9
:102240007801002001490880704700007C010020CF
:1022500000BFFEE77047704729B1064A5269024342
:10226000044B5A6104E0034A52698243014B5A61AC
:10227000704700000010024029B1064A92690243EB
:10228000044B9A6104E0034A92698243014B9A61CC
:10229000704700000010024030B5002100220024E9
:1022A00000232D4D6D6805F00C0121B1042905D0E6
:1022B000082923D105E0294D056022E0274D05605E
:1022C0001FE0254D6D6805F47012234D6D6805F40F
:1022D0008034022505EB92421CB9214D554305601F
:1022E0000BE01D4D6D6805F400351DB11C4D5543C7
:1022F000056002E0194D5543056002E0174D056089
:1023000000BF00BF144D6D6805F0F0010909154DBF
:102310006B5C0568DD4045600F4D6D6805F4E0615C
:10232000090A104D6B5C4568DD4085600A4D6D689B
:1023300005F46051C90A0B4D6B5C4568DD40C56012
:10234000054D6D6805F44041890B074D6B5CC56810
:10235000B5FBF3F5056130BD0010024000127A00B4
:1023600000093D00000000201000002021B102887B
:1023700042F04002028004E002884FF6BF731A4028
:102380000280704770B505460C461646012110487C
:10239000FEF715FF032000F07FF9C4F3074000F0BB
:1023A0007BF9C4F3072000F077F9E0B200F074F98C
:1023B00004E0FF2000F070F928706D1C301EA6F1BB
:1023C00001018EB2F5D101210148FEF7FAFE70BD80
:1023D000001001402DE9F05F07460E4614464FF00D
:1023E0000008C146C2460025AB4606F0FF0ACAF106
:1023F0000000C5B22046E11704EB1161C1F30728C4
:10240000E11704EB11610912A4EB012101F0FF09AE
:10241000BAF1000F20D1B8F1000F05D122463146A4
:10242000384600F0C9F864E009E04FF480723146A4
:10243000384600F0C1F806F5807607F58077B8F1E8
:102440000000A8F1010101F0FF08EED14A46314633
:10245000384600F0B1F84CE0B8F1000F18D1A945AA
:1024600010DDA9EB050000F0FF0B2A463146384687
:1024700000F0A2F82E442F445A463146384600F068
:102480009BF836E022463146384600F095F830E0B9
:10249000601B84B22046E11704EB1161C1F30728E9
:1024A000E11704EB11610912A4EB012101F0FF090E
:1024B0002A463146384600F07FF82E442F4409E082
:1024C0004FF480723146384600F076F806F5807693
:1024D00007F58077B8F10000A8F1010101F0FF08CD
:1024E000EED1B9F1000F04D04A463146384600F02B
:1024F00063F8BDE8F09F000000B587B00121080334
:10250000FFF7BAFE01211420FFF7B6FE0120ADF857
:10251000040003208DF8060010208DF8070001A9A3
:102520002248FEF7B8FD2020ADF8040018208DF8F1
:10253000070001A91E48FEF7AEFD4020ADF80400DB
:1025400001A91B48FEF7A7FD8020ADF8040001A9F2
:102550001748FEF7A0FD01211448FEF732FE0020C7
:10256000ADF808004FF48270ADF80A000020ADF815
:102570000C000220ADF80E000120ADF81000400262
:10258000ADF812000820ADF814000020ADF81600D8
:102590000720ADF8180002A9064800F0F1F8012163
:1025A0000448FFF7E3FE07B000BD00000010014043
:1025B000000801400030014070B505460C46164643
:1025C00000F0C0F801211548FEF7F9FD022000F0E7
:1025D00063F8C4F3074000F05FF8C4F3072000F08D
:1025E0005BF8E0B200F058F8B6F5807F04DD4FF4F8
:1025F00080760BA001F042F803E0287800F04CF858
:102600006D1C301EA6F101018EB2F6D101210348E6
:10261000FEF7D7FD00F07CF870BD0000001001400F
:102620003C3C2D464C4153482D4552524F522D3E75
:102630003E205350495F464C4153485F50616765A7
:10264000577269746520746F6F206C6172676521C1
:102650000A00000010B5044600F074F800F058F8C5
:1026600001210C48FEF7ABFD202000F015F8C4F363
:10267000074000F011F8C4F3072000F00DF8E0B2B5
:1026800000F00AF801210348FEF79BFD00F040F836
:1026900010BD00000010014010B504464FF48050FA
:1026A000194908600AE018490868411E164A116075
:1026B00020B9002000F082F8C0B210BD02211348FA
:1026C00000F050F80028EED02146104800F056F8EF
:1026D0004FF480500C4908600AE00B490868411E1D
:1026E000094A116020B9012000F068F8C0B2E4E79F
:1026F0000121064800F036F80028EED0034800F02B
:102700003AF8C0B2D9E700009C0100200030014037
:1027100010B5002401210A48FEF751FD0520FFF7FE
:10272000BBFF00BFFF20FFF7B7FF044604F0010026
:102730000028F7D101210248FEF743FD10BD00003B
:102740000010014010B501210548FEF738FD0620B4
:10275000FFF7A2FF01210248FEF733FD10BD000084
:10276000001001400246002013890B400BB10120EC
:1027700000E00020704701468889704781817047DA
:1027800010B50022028802F441520B884C88234382
:102790008C882343CC8823430C8923434C892343CF
:1027A0008C892343CC8923431A430280838B4FF2C5
:1027B000FF74234083830B8A038210BD10B5044647
:1027C000214602A000F05AFF002010BD3C3C2D46DF
:1027D0004C4153482D4552524F522D3E3E205350AE
:1027E0004920B5C8B4FDB3ACCAB1216572726F722D
:1027F000436F6465203D2025640A0000704710B5D2
:1028000000F002F810BD00000CB50020019000900F
:102810003348006840F480303149086000BF3048D8
:10282000006800F4003000900198401C019000986E
:1028300018B90198B0F5A06FF1D12948006800F4EB
:10284000003010B10120009001E0002000900098BD
:10285000012843D12348006840F010002149086056
:102860000846006820F0030008600846006840F051
:10287000020008601A4840681949486008464068E4
:1028800048600846406840F48060486008464068F8
:1028900020F47C1048600846406840F4E810486026
:1028A0000846006840F08070086000BF0C4800686F
:1028B00000F000700028F9D00948406820F00300BB
:1028C000074948600846406840F00200486000BF81
:1028D0000348406800F00C000828F9D10CBD000046
:1028E00000100240002002407047000010B513485D
:1028F000006840F00100114908600846406810492E
:1029000008400E494860084600680E4908400B49D7
:1029100008600846006820F4802008600846406887
:1029200020F4FE0048604FF41F008860FFF767FF47
:102930004FF000600449086010BD00000010024024
:102940000000FFF8FFFFF6FE08ED00E010B5FFF70E
:10295000D3F800F075F80620FFF75EF800F0AAFA49
:1029600000210620FEF780FAFEF7CAFCFFF7B2FB53
:10297000FEF752F90248FEF7F9FA00F003F810BD2D
:10298000FFFF7F0010B502E0044800F013F920219A
:10299000024800F095F80028F6D110BD003801403B
:1029A0002DE9F04104460F46904600251BE020210A
:1029B000114800F085F8A8B10F4800F0FBF8C6B246
:1029C0000D2E00D10FE00A2E04D100206055012009
:1029D000BDE8F081781EA84203DD2846691C8DB24F
:1029E000265400BF00BFB8F10000A8F10108DED1F5
:1029F000605500BFECE700000038014010B5044608
:102A00000BE02178074800F0DAF800BF8021054884
:102A100000F056F80028F9D0641C20780028F0D186
:102A200010BD00000038014021B1828942F40052FB
:102A3000828104E082894DF6FF731A4082817047DB
:102A400000B585B001210420FFF716FC01218803A1
:102A5000FFF712FC4FF40070ADF8100018208DF84D
:102A6000130003208DF8120004A91348FEF713FB8E
:102A70004FF48060ADF8100004208DF8130004A915
:102A80000D48FEF708FB4FF4E13000900020ADF850
:102A90000400ADF80600ADF80800ADF80C000C20FD
:102AA000ADF80A006946054800F018F8012103480E
:102AB000FFF7BAFF05B000BD000801400038014033
:102AC00002460020B1F5007F00D100BF13880B4003
:102AD0000BB1012000E00020704700002DE9F04715
:102AE00086B005460E460024A24600BFA146002738
:102AF000B08900B100BF2F462C8A4CF6FF7004400D
:102B0000F08804432C82AC894EF6F3100440B08860
:102B100031890843718908430443AC81AC8A4FF67C
:102B2000FF400440B0890443AC8201A8FFF7B4FB26
:102B30001F48874202D1DDF810A001E0DDF80CA0AB
:102B4000A88900F4004040B10AEBCA0000EB0A106B
:102B500031684900B0FBF1F807E00AEBCA0000EB6E
:102B60000A1031688900B0FBF1F86420B8FBF0F07E
:102B700004012009642101FB1089A88900F40040A8
:102B800040B1322000EBC900B0FBF1F000F00700CB
:102B9000044308E0322000EB09106421B0FBF1F09F
:102BA00000F00F0004432C8106B0BDE8F087000060
:102BB0000038014001468888C0F308007047C1F31F
:102BC00008028280704700BFFEE72DE9F04105460C
:102BD0000C4616460127B4F90010B4F91020891AE2
:102BE000B4F90A30B4F912209A1A5143B4F9082002
:102BF000B4F91030D31AB4F902C0B4F91220ACEB16
:102C0000020203FB1210FDF771FCB0610021B069F4
:102C1000FDF7D2FC01D10027C3E0B5F90010B5F9EA
:102C20001020891AB4F90A30B4F912209A1A5143C3
:102C3000B5F90820B5F91030D31AB4F902C0B4F9C7
:102C40001220ACEB020203FB1210FDF74FFC3060C8
:102C5000B4F90010B4F91020891AB5F90820B5F9B3
:102C60001030D21A5143B5F90020D21AB4F9083005
:102C7000B4F910C0A3EB0C0302FB1310FDF736FCF4
:102C80007060B4F91010B5F908205143B4F9082068
:102C9000B5F9103002FB1311B4F902205143B4F915
:102CA00000205A43B4F91030B5F900C003FB1C23CF
:102CB000B4F90A2003FB0212B4F9081001FB0CF16D
:102CC000B4F90030B5F908C003FB1C13B4F91210B5
:102CD00003FB0120FDF70AFCB060B5F90220B5F94D
:102CE0001210511AB4F90A30B4F912209A1A514349
:102CF000B5F90A30B5F912209B1AB4F902C0B4F93B
:102D00001220ACEB020203FB1210FDF7EFFBF060A8
:102D1000B4F90010B4F91020891AB5F90A30B5F9E0
:102D200012209A1A5143B5F90230B5F912209A1AB5
:102D3000B4F90830B4F910C0A3EB0C0302FB131074
:102D4000FDF7D4FB3061B4F91010B5F90A205143F6
:102D5000B4F90830B5F9122003FB1211B4F90220BE
:102D60005143B4F90020B5F912305A43B4F9103088
:102D7000B5F902C003FB1C23B4F90A2003FB0213BC
:102D8000B4F9081001FB0CF1B4F900C0B5F90A2040
:102D90000CFB1212B4F9121002FB0130FDF7A6FB76
:102DA00070613846BDE8F08101B5002007E00C21D4
:102DB00000BF0A1EA1F10103D9B2FAD1401C00994B
:102DC0008842F4D308BD00002DE9FC5F05460C469F
:102DD0000126684600F0BEF8002865D0BDF9020063
:102DE000FDF784FB83463248007800EB400004EB9B
:102DF000C00041685846FDF728FA8146BDF9000039
:102E0000FDF774FB83462A48007800EB400054F835
:102E100030105846FDF719FA82464946FDF7BDF9CC
:102E200080462348007800EB400004EBC000816836
:102E30004046FDF7B2F90746FDF761FB00B2288076
:102E4000BDF90200FDF752FB83461948007800EBFC
:102E5000400004EBC00001695846FDF7F6F98146D1
:102E6000BDF90000FDF742FB83461148007800EBF6
:102E7000400004EBC000C1685846FDF7E6F9824601
:102E80004946FDF78AF980460948007800EB400082
:102E900004EBC00041694046FDF77FF90746FDF7A6
:102EA0002EFB00B2688000E000263046BDE8FC9FA3
:102EB0007401002008B501216020FFF7DDF9012031
:102EC000ADF800008DF8020010208DF8030069466F
:102ED0001A48FEF7E0F80420ADF8000069461748EC
:102EE000FEF7D9F80820ADF8000001208DF80200A7
:102EF00048208DF8030069461048FEF7CCF84FF4DF
:102F00000050ADF8000001208DF8020010208DF86F
:102F1000030069460A48FEF7BEF84FF4005108481E
:102F2000FEF74DF91020ADF8000048208DF80300A1
:102F300069460248FEF7AFF808BD000000180140DE
:102F40000014014010B50446204600F065FB00F077
:102F5000C1F810BD2DE9F0478CB0064600252821A8
:102F60006846FDF708F900BF0AA90BA800F09EF813
:102F7000BDF92C002DF81500BDF9281005A820F882
:102F80001510681CC5B210214648FEF70FF908B9A4
:102F90000A2DE9DB10214348FEF708F910B10020A3
:102FA000414908700A2D7BD1BDF90070B846BDF9C2
:102FB0001490CA4601240EE03DF91400B84202DA2A
:102FC0003DF9147005E03DF91400404501DD3DF97F
:102FD0001480601CC4B20A2CEEDB012412E005A8A8
:102FE00030F91400484503DA05A830F9149007E0D9
:102FF00005A830F91400504502DD05A830F914A0E9
:10300000601CC4B20A2CEADBBDF90000BDF9021055
:103010000844BDF904100844BDF906100844BDF980
:1030200008100844BDF90A100844BDF90C10084402
:10303000BDF90E100844BDF910100844BDF9121076
:103040000844C01BA0EB0800C01000B23080BDF9DE
:103050001410BDF916000144BDF918000144BDF972
:103060001A000144BDF91C000144BDF91E000144D1
:10307000BDF920000144BDF922000144BDF924003E
:103080000144BDF926000844A0EB0900A0EB0A00AA
:10309000C01000B2708001200CB0BDE8F087FFE7DF
:1030A0000020F9E700180140600200202DE9F041FE
:1030B00004460D469020FFF745FF06B20120FFF7BA
:1030C00073FED020FFF73EFF07B226802F80BDE8B9
:1030D000F081000070B5002504211148FEF76FF85B
:1030E00001210F48FEF76DF8002414E001210C487F
:1030F000FEF765F808210A48FEF758F80646C4F1BD
:103100000B0006FA00F0284385B201210448FEF7BF
:1031100058F8601CC4B20C2CE8DB284670BD0000D7
:10312000001801402DE9F04FB9B004464FF00009F6
:10313000CA4600201E901D900026FE48FFF77CF82E
:1031400000211F20FFF76EF82046FEF765FCFA48C5
:1031500000888010ADF85400F84800888010ADF861
:103160005600BDF85400ADF85C00F448008800EB50
:103170004000801001B215A84181EF48008800EBA3
:103180004000801000B2ADF8640015A8418941826A
:10319000BDF86400ADF86C00BDF8561015A8418369
:1031A000002558E0E5480388E348028800210846E6
:1031B000FEF738F9E2A6FFF72FF88088DE49098884
:1031C00091FBF0F83046FCF7E1FFA8EB0000470860
:1031D00020233A46E0A11FA8009600F05FFAD749E5
:1031E000098848101FA9FEF7CBF9FFF715F880886A
:1031F000D149098891FBF0F0471E681C009007EB4D
:10320000D77042102023D6A11FA800F047FAFFF77D
:1032100003F8C088C9490988C0EB610087B21FA9BB
:103220003846FEF7ADF9D048FFF7BEFD15AA02EB10
:10323000C502528891B215AA32F8352090B2FEF735
:103240002DFA00BF0DA901EBC500FFF783FE002892
:10325000F8D0681CC5B2042DA4DB06AA0DA915A8D8
:10326000FFF7B3FC00210C98FDF7A6F900D143E16C
:10327000BDF94E00FDF73AF903900799FCF7E5FF19
:103280008346BDF94C00FDF731F903900699FCF730
:10329000DCFF59460490FCF780FF80460899FCF754
:1032A0007CFF05900C99FDF702F80746FDF740F901
:1032B0001FFA80F9BDF94E00FDF718F903900A993D
:1032C000FCF7C3FF0590BDF94C00FDF70FF9039023
:1032D0000999FCF7BAFF04900599FCF75EFF834655
:1032E0000B99FCF75AFF80460C99FCF7E0FF074664
:1032F000FDF71EF91FFA80FABDF96C00484504DAA3
:10330000BDF96C00A9EB000003E0BDF96C00A0EB77
:10331000090080B21E90BDF96E00504504DABDF977
:103320006E00AAEB000003E0BDF96E00A0EB0A00FE
:1033300080B21D901E980F2802DC1D980F2800DD1A
:10334000DAE00C98FDF708F9CDE902010698FDF7DF
:1033500003F907460022854BFCF7E7FFCDE90001A2
:10336000DDE90223FDF753F8CDE90401FDF707F984
:1033700004EB44017E4A42F831000C98FDF7ECF86A
:10338000CDE902010798FDF7E7F807460022774BE1
:10339000FCF7CBFFCDE90001DDE90223FDF737F8AB
:1033A000CDE90401FDF7EBF804EB4401704A02EBB0
:1033B000C10148600C98FDF7CFF8CDE902010898EB
:1033C000FDF7CAF807460022684BFCF7AEFFCDE9CF
:1033D0000001DDE90223FDF71AF8CDE90401FDF74C
:1033E000CEF804EB4401624A02EBC10188600C98FC
:1033F000FDF7B2F8CDE904010998FDF7ADF8002218
:103400005A4BCDE90001FCF790FFCDE90201DDE95F
:103410000423FCF7FCFF0746FDF7B1F804EB440179
:10342000534A02EBC101C8600C98FDF795F8CDE94D
:1034300004010A98FDF790F800224C4BCDE90001F9
:10344000FCF773FFCDE90201DDE90423FCF7DFFFA0
:103450000746FDF794F804EB4401454A02EBC1012D
:1034600008610C98FDF778F8CDE902010B98FDF79B
:1034700073F800223D4BCDE90001FCF756FF0746EB
:10348000DDE90223FCF7C3FFCDE90401FDF777F87E
:1034900004EB4401364A02EBC10148612748038826
:1034A0002548028800210846FDF7BCFF4FF4FC6068
:1034B000FEF7C8FE2FA6FEF7AFFE80881E490988DA
:1034C00091FBF0F83046FCF761FEA8EB00004708DE
:1034D00020233A4620A11FA8009600F0DFF81749E4
:1034E000098848101FA9FEF74BF82748FFF75CFC36
:1034F000012039B0BDE8F08F104803880E480288DB
:1035000000210846FDF78EFF4FF47840FEF79AFE43
:103510001EA6FEF781FE80880749098891FBF0F816
:103520003046FCF733FEA8EB0000470820233A465C
:1035300009A133E080010020700100207201002009
:10354000546F7563682043616C69627261746520B1
:103550002E2E2E2E2E2E0000252A6325730000000D
:10356000252A632564000000E09304000000F03F7A
:10357000A001002043616C6962726174652053751B
:10358000636365640000000040420F0043616C69A2
:103590006272617465206661696C00001FA8009604
:1035A00000F07CF81649098848101FA9FDF7E8FFCC
:1035B00014A6FEF731FE80881549098891FBF0F8C2
:1035C0003046FCF7E3FDA8EB0000470820233A460D
:1035D000AFF27C011FA8009600F060F8FEF71CFE19
:1035E000C0880749098800EB610087B21FA93846E7
:1035F000FDF7C6FF0748FFF7D7FB002079E700007B
:103600007201002074727920616761696E000000A8
:103610007001002040420F0070B505460421164895
:10362000FDF7CDFD01211448FDF7C9FD00241FE081
:10363000C4F1070045FA00F000F0010020B10421B8
:103640000D48FDF7BEFD03E004210B48FDF7B7FD73
:103650000520FFF7A9FB01210748FDF7B2FD052072
:10366000FFF7A2FB01210448FDF7A9FD601CC4B2CD
:10367000082CDDDB70BD0000001801400FB4054BC5
:1036800010B503A9044A029800F02CF810BC5DF8AC
:1036900014FB0000313A0008880200200FB4084BE8
:1036A00010B504A902AA039800F01CF8044602A968
:1036B000002000F0B8F9204610BC5DF814FB0000B3
:1036C000273A000802E008C8121F08C1002AFAD1F0
:1036D00070477047002001E001C1121F002AFBD192
:1036E000704700002DE9FF4F8BB088460546002645
:1036F00006E025280BD0DDE90D1290476D1C761CE5
:1037000028780028F5D10FB03046BDE8F08F0024AE
:10371000A146A2460122AE4900E0044315F8013F4C
:10372000203B02FA03F00842F7D128782A2810D06B
:103730006FF02F022878A0F13001092915D809EB84
:10374000890102EB410144F0020400EB01096D1C08
:10375000F0E758F8041B5FEA010903D544F400546C
:10376000C9F1000944F002046D1C28782E2817D1F5
:1037700015F8010F44F004042A280ED06FF02F0230
:103780002878A0F1300109290AD80AEB8A0102EB56
:10379000410100EB010A6D1CF2E758F804AB6D1C07
:1037A00028786C280FD006DC4C2817D068280DD05C
:1037B0006A2814D104E0742810D07A280FD10DE0C3
:1037C00044F400140AE044F4801401E044F440148A
:1037D0006978814202D104F580146D1C6D1C287833
:1037E000692865D006DC00288DD0632827D064289E
:1037F00006D15DE06E2808D073282AD0752877D0CE
:10380000DDE90D129047761CE0E0C4F30250022877
:1038100009D003280DD0D8F8001004280DD00E6070
:1038200008F10408D2E0D8F80010F217C1E90062EC
:10383000F6E7D8F800100E80F2E70E70F0E718F8FF
:10384000041B8DF8001000208DF80100EB460120CC
:1038500003E058F804BB4FF0FF3061074FF000075A
:1038600001D40AE07F1C57450DDA8742FADB1BF8CA
:1038700007100029F6D106E07F1C8742FCDB1BF80D
:1038800007100029F8D1DDE90D23A9EB07008146D7
:10389000214600F0B1F83044C61904E0DDE90D120C
:1038A0001BF8010B90477F1EF8D22146484688E05E
:1038B00058F8040BC4F302514FF00A0B032900D14E
:1038C00000B2042900D140B2002802DA40422D2182
:1038D00002E0210505D52B218DF82410012104E0FB
:1038E00006E0E10710D02021F6E708AF089113E0C9
:1038F00058F8040BC4F302514FF00A0B032900D10E
:1039000080B2042900D1C0B20021EEE75946FCF78D
:103910005DFE303107F8011D0028F7D1ADEB07003F
:1039200000F1200B600702D524F4803401E04FF051
:10393000010ADA4502DDAAEB0B0000E00020824616
:1039400000EB0B0108980144A9EB01000A90E00389
:1039500006D4DDE90D2321460A9800F04DF806440F
:103960004FF0000908E009A911F80900DDE90D127E
:10397000904709F10109761C08998945F3DBE003BA
:103980000CD5DDE90D2321460A9800F035F80644F0
:1039900004E0DDE90D1230209047761CBAF10001F9
:1039A000AAF1010AF5DC05E0DDE90D1217F8010BBB
:1039B0009047761CBBF10001ABF1010BF4DC0A98D7
:1039C0002146DDE90D2300F005F806446D1C97E65D
:1039D000092801002DE9F041044600251E4617463E
:1039E000880404D405E039462020B0476D1C641ECD
:1039F000F9D52846BDE8F0812DE9F04104460025BF
:103A00001E469046C80301D5302700E020278804D1
:103A100004D505E041463846B0476D1C641EF9D513
:103A20002846BDE8F0810A68531C0B60107070478F
:103A300070B504460D46E1B20548FFF7C0F800BF77
:103A400080210348FFF73CF80028F9D0204670BDDC
:103A500000380140FEF77AFFFDF7E8F900000000AA
:103A6000000000000000000000000000000000183E
:103A70001818181818080008180000000000003472
:103A800024242400000000000000000000000000CA
:103A900016247F2424247E24240000000000000833
:103AA0003E6848681C1612127C101000000000616D
:103AB000D296740810162949C600000000000000C4
:103AC0003C646438724ACE467F0000000000001853
:103AD000181818000000000000000000000000049A
:103AE000081810303030301010180C04000000207E
:103AF0001008080C0404040C08181020000000082A
:103B00000A341C6A080000000000000000000000E9
:103B100000001818187F1818180000000000000096
:103B2000000000000000001818083000000000002D
:103B300000000000003C0000000000000000000049
:103B40000000000000000018180000000000000243
:103B500006040C080810102020400000000000009F
:103B60003C6642475B7342663C0000000000000078
:103B700018784808080808087E00000000000000C7
:103B80003C460606040810207E00000000000000ED
:103B90007C0606043C0202067C00000000000000D7
:103BA0000C1C14246444FF04040000000000000006
:103BB0007E6060607E0202067C0000000000000063
:103BC0001E306048764242623C0000000000000067
:103BD0007E0206040C0818103000000000000000EF
:103BE0003C6242361C6642423C000000000000007D
:103BF0003C664242661A02047800000000000000A1
:103C00000000181800000018180000000000000054
:103C1000000018180000001818083000000000000C
:103C2000000004183060100C0600000000000000C6
:103C3000000000007E007E00000000000000000088
:103C40000000301804060C102000000000000030B6
:103C50001C06060618100010100000000000001CD2
:103C6000224141DDB5A5A5AF94C0403C0000000055
:103C7000181C342426627E43C100000000000000AE
:103C80007C4642467C4242427C000000000000002C
:103C90001E204040404040603E0000000000000008
:103CA0007C46424343434246780000000000000047
:103CB0007E6060607E6060607E000000000000004A
:103CC0007E6060607E606060600000000000000058
:103CD0001E604040CE4242623E00000000000000F4
:103CE000424242427E424242420000000000000046
:103CF0007E181818181818187E0000000000000020
:103D00007C04040404040444780000000000000063
:103D10004244485070584C444200000000000000EB
:103D200020202020202020203E0000000000000055
:103D30006266675F5B5BC1C1C100000000000000FC
:103D4000626272525A4A4E4646000000000000006D
:103D50003C6243C3C3C343623C0000000000000058
:103D60007C4642424678404040000000000000008F
:103D70003C6243C3C3C343623C180F000000000011
:103D80007C6662667C6C6466620000000000000075
:103D90003E6040601C0602027C0000000000000043
:103DA0007F181818181818181800000000000000D4
:103DB00042424242424242623C0000000000000097
:103DC000C14342622624341C180000000000000099
:103DD000C1C141495B5B76666600000000000000DF
:103DE00043663418181C2466C3000000000000005D
:103DF000C14266341C1818181800000000000000AA
:103E00007E02040C181020607E0000000000001CE0
:103E100010101010101010101010101C0000004096
:103E20002020101008080C04060200000000003CCE
:103E30000C0C0C0C0C0C0C0C0C0C0C3C00000000C2
:103E4000181C2462000000000000000000000000B8
:103E50000000000000000000000000FF0000002043
:103E60001000000000000000000000000000000042
:103E700000003C06023E42467A000000000000407E
:103E800040405C62424242427C0000000000000070
:103E900000001E20604060203E0000000000000284
:103EA00002023E62424242663A0000000000000008
:103EB00000003C62427E40603E0000000000000FB7
:103EC0001810107E101010101000000000000000EC
:103ED00000003F66426658403E43423C00000040BE
:103EE00040405C6242424242420000000000001832
:103EF00018007808080808087E0000000000000488
:103F00000C007C040404040404040C780000006029
:103F10006060626C78706864620000000000007885
:103F200008080808080808087E00000000000000D3
:103F30000000764B4B4B4B4B4B0000000000000049
:103F400000005C6242424242420000000000000069
:103F500000003C62424342623C000000000000005E
:103F600000005C62424242427C404040000000004F
:103F700000003E62424242663A0202020000000035
:103F800000006E726360606060000000000000006E
:103F900000003E20203C06027C00000000000000E3
:103FA0001010FE10101010101E0000000000000085
:103FB00000004242424242663A0000000000000017
:103FC000000043426624341818000000000000007E
:103FD0000000C1C15B5A5E66660000000000000080
:103FE000000062261C181C26620000000000000071
:103FF000000043426624341C181830E00000000022
:1040000000007E060C1810207E0000000000000E4C
:1040100018101010307010101010180E0000080842
:104020000808080808080808080808080000003000
:10403000180808080C0E08080808183000000000CE
:1040400000000000714B06000000000000000000AE
:104050000000000000000000000000000000000060
:104060000000000000000000000000000000000050
:104070000000000000000000000000000000000040
:1040800000000000000003800180018001800180A9
:10409000018001800180018001800000000003C0D8
:1040A00003C000000000000000000000000000004D
:1040B0000000000000000E700E700E700C3000004A
:1040C00000000000000000000000000000000000F0
:1040D00000000000000000000000000000000000E0
:1040E00000000000000000000618063806307FFEC1
:1040F0000C300C300C300C307FFE0C601C601860F3
:104100001860000000000000000000000000000037
:104110000000000000C000C00FF83CC831C0318072
:104120003D801F8003F001F8031C030C031C3FF8C3
:104130003FE0070006000000000000000000000053
:10414000000000001C007E0E630C631863307E606C
:1041500000C001800300077C0EE61CC618C630C6EE
:10416000607C000000000000000000000000000073
:104170000000000000000FE01CF0387038701C6078
:104180001FC00F003F8C71CC60EC607C70383CFC31
:104190001FCE000000000000000000000000000032
:1041A00000000000000003C00180018001800000C9
:1041B00000000000000000000000000000000000FF
:1041C00000000000000000000000000000000000EF
:1041D00000000000003000E001C001800300070083
:1041E000060006000E000E000E000E00060007007E
:1041F0000300038001C000E0003000000000000068
:10420000000000000C0006000380018001C000E0F7
:10421000006000600070007000700060006000E0EE
:1042200000C00180038006000C00000000000000B8
:10423000000000000000018011881DB803C007E0E5
:104240003DBC01880180000000000000000000006B
:10425000000000000000000000000000000000005E
:10426000000000000000000000000000018001804C
:104270000180018001807FFE01800180018001803A
:10428000000000000000000000000000000000002E
:10429000000000000000000000000000000000001E
:1042A00000000000000000000000000003C003C088
:1042B00001C001C003801F000000000000000000DA
:1042C00000000000000000000000000000000000EE
:1042D0000000000000000FF00000000000000000DF
:1042E00000000000000000000000000000000000CE
:1042F00000000000000000000000000000000000BE
:1043000000000000000000000000000003C003C027
:1043100003C00000000000000000000000000000DA
:10432000000000000000001800380030006000E0CD
:1043300000C001C001800300030006000E000C0055
:104340001C00180030000000000000000000000009
:1043500000000000000001800FF01C38381C301CE9
:10436000707E70EE738E7E0E7C0C300C381C1E78C6
:104370000FE000000000000000000000000000004E
:10438000000000000000000007C01FC039C001C0CD
:1043900001C001C001C001C001C001C001C03FFC9B
:1043A0003FFC0000000000000000000000000000D2
:1043B00000000000000003801FF0183800380018CB
:1043C00000380038007001E0038007001C003FFC4B
:1043D0003FFC0000000000000000000000000000A2
:1043E00000000000000007801FF00038003800388F
:1043F000003007E007F00038001C001C001820F80F
:104400003FE000000000000000000000000000008D
:10441000000000000000000000F001B00330073091
:104420000E301C30383070307FFE7FFE00300030A0
:10443000003000000000000000000000000000004C
:1044400000000000000000001FF81800180018000D
:1044500018001FE000F8001C001C001C003800F0D1
:104460001FC000000000000000000000000000006D
:10447000000000000000000003F80F001C001800FE
:10448000300037F83C3C300C300C380C381C1E38EF
:104490000FF000000000000000000000000000001D
:1044A00000000000000000003FFC001C0018003865
:1044B0000070006000E001C001800380070006007A
:1044C0000E000000000000000000000000000000DE
:1044D00000000000000003C01FF8381C381C381C06
:1044E0001C380FF007F01C78381C300C381C3C3896
:1044F0000FF00000000000000000000000000000BD
:1045000000000000000003801FF03838301C701CD1
:10451000700C380C1FFC0FCC001C001800701FE042
:104520001F800000000000000000000000000000EC
:10453000000000000000000000000000000003C0B8
:1045400003C00180000000000000000003C003C0A1
:1045500003C0000000000000000000000000000098
:10456000000000000000000000000000000003C088
:1045700003C00180000000000000000003C003C071
:1045800001C001C003800F00000000000000000017
:10459000000000000000000000000000003800F0F3
:1045A00001C007001E0038000E00078001C0007027
:1045B00000300000000000000000000000000000CB
:1045C00000000000000000000000000000000000EB
:1045D00000003FFC000000003FFC3FFC000000002A
:1045E00000000000000000000000000000000000CB
:1045F0000000000000000000000000001C000F0090
:10460000038001E00078001C007001E003800E00D0
:104610000C0000000000000000000000000000008E
:104620000000000000000FC000F000380038003823
:10463000003803F00380030003000000000007803F
:1046400007800000000000000000000000000000E3
:104650000000000000E007F80C0C1806300670039C
:1046600063F36633C673CC63CC62CC66CCE6C7FC1E
:10467000E0006000700038101FF000000000000033
:10468000000000000000000003C007E006E00E701C
:104690000E700C301C3818183FFC3FFC700E600E7A
:1046A000E007000000000000000000000000000023
:1046B00000000000000000003FF03838381C381CB3
:1046C00038383FF03FF8381C380C380C381C3FF8AD
:1046D0003FE00000000000000000000000000000BB
:1046E00000000000000000E007FC1E043800380055
:1046F0003000700070007000300038003C001F9CDB
:1047000007FC0000000000000000000000000000A6
:1047100000000000000000003FF03078301C300C3A
:10472000300E300E300E300E300E301C30383FF070
:104730003FC000000000000000000000000000007A
:1047400000000000000000001FF81800180018000A
:1047500018001FF81FF818001800180018001FF89C
:104760001FF8000000000000000000000000000032
:1047700000000000000000001FF8180018001800DA
:1047800018001FF81FF8180018001800180018006B
:104790001800000000000000000000000000000001
:1047A00000000000000000F007FC1E04380030008C
:1047B0007000700070FC700C700C300C380C1F1CFA
:1047C00007FC0000000000000000000000000000E6
:1047D0000000000000000000300C300C300C300CE9
:1047E000300C3FFC3FFC300C300C300C300C300CEB
:1047F000300C00000000000000000000000000007D
:1048000000000000000000003FFC018001800180EA
:1048100001800180018001800180018001803FFCD6
:104820003FFC00000000000000000000000000004D
:1048300000000000000000001FF0003000300030D9
:1048400000300030003000300030003000701DE0DB
:104850001FC0000000000000000000000000000079
:104860000000000000000000381C387038E039C03B
:104870003B803F003F003B8039C038E0387038381B
:10488000381C0000000000000000000000000000D4
:1048900000000000000000001C001C001C001C00A8
:1048A0001C001C001C001C001C001C001C001FFC29
:1048B0001FFC0000000000000000000000000000DD
:1048C0000000000000000000381C7C3C6C3E6E6E56
:1048D000666E66CE63C663866186600660066006A5
:1048E0006006000000000000000000000000000062
:1048F00000000000000000003C0C3C0C3E0C360C9C
:10490000330C338C318C31CC30EC306C307C303C1F
:10491000301C00000000000000000000000000004B
:1049200000000000000001C00FF81C3C381C700E95
:10493000700E60066006700E700E700C381C1E78CB
:104940000FE0000000000000000000000000000078
:1049500000000000000000003FF0383C381C380C1C
:10496000380C381C38783FE0380038003800380000
:1049700038000000000000000000000000000000FF
:1049800000000000000001C00FF81C3C381C700E35
:10499000700E60066006700E700E700C381C1E786B
:1049A0000FE0018001C000FF003C0000000000009B
:1049B00000000000000000003FF0383838183818B8
:1049C000383838F03FC038E0387038383838381C5C
:1049D000380E000000000000000000000000000091
:1049E00000000000000001E00FF838003800380037
:1049F0003C001F8003F00078001C001C001C38786D
:104A00003FE0000000000000000000000000000087
:104A100000000000000000007FFE01800180018096
:104A2000018001800180018001800180018001807E
:104A300001800000000000000000000000000000F5
:104A40000000000000000000300C300C300C300C76
:104A5000300C300C300C300C300C300C381C1C3846
:104A60000FF0000000000000000000000000000047
:104A70000000000000000000E006700E700E381C00
:104A8000381C1C181C380C300E70066007E003C080
:104A900003C0000000000000000000000000000053
:104AA000000000000000000060066006600660066E
:104AB0006186638673C673CE766C366C3C3C3C3C38
:104AC000381C000000000000000000000000000092
:104AD0000000000000000000301C38181C380E7068
:104AE00007E003C003C007E00E701C381838381CFC
:104AF000700E000000000000000000000000000038
:104B00000000000000000000700E700C381C1C3803
:104B10000E70066007E003C0018001800180018003
:104B20000180000000000000000000000000000004
:104B300000000000000000003FFC001C0038007076
:104B400000E001C0038007000E000C0018003FFCCD
:104B50003FFC00000000000000000000000000001A
:104B60000000000007F007F006000600060006003F
:104B70000600060006000600060006000600060005
:104B8000060006000600060007F000000000000016
:104B900000000000000018001C000C0006000700C8
:104BA00003000380018001C000C00060007000307D
:104BB00000380018000C0000000000000000000099
:104BC000000000000FE00FE0006000600060006087
:104BD00000600060006000600060006000600060D5
:104BE00000600060006000600FE000000000000056
:104BF000000000000000000003C006C006600C308A
:104C00001818301C00000000000000000000000028
:104C10000000000000000000000000000000000094
:104C20000000000000000000000000000000000084
:104C30000000000000000000000000000000000074
:104C40000000000000000000FFFF00000000000066
:104C50000000000000001E000380000000000000B3
:104C60000000000000000000000000000000000044
:104C70000000000000000000000000000000000034
:104C800000000000000000000000000000001FF015
:104C90001038001C001C0FFC1C1C381C381C3CFC71
:104CA0001FDC000000000000000000000000000009
:104CB00000000000000038003800380038003BF8E1
:104CC0003E1C3C1C380C380C380C380C381C3C781A
:104CD0001FE00000000000000000000000000000D5
:104CE000000000000000000000000000000007F8C5
:104CF0000E001C0038003800380038001C000F1867
:104D000007F80000000000000000000000000000A4
:104D1000000000000000001C001C001C001C0FFC18
:104D20001C1C381C301C301C301C301C383C1CFC3B
:104D30000F9C0000000000000000000000000000C8
:104D400000000000000000000000000000000FF064
:104D50001C38381C300C3FFC3000300038001E0C72
:104D600007FC000000000000000000000000000040
:104D700000000000003C01FE03800300030003006C
:104D80007FFC7FFC0300030003000300030003001B
:104D90000300000000000000000000000000000010
:104DA00000000000000000000000000000000FFEF6
:104DB0001C383818381818381FF03B8030003FF086
:104DC0001FFC300E700E381C1FF8000000000000A1
:104DD00000000000000038003800380038003BF8C0
:104DE0003E383C1C381C381C381C381C381C381CFD
:104DF000381C00000000000000000000000000005F
:104E000000000000018003C003C0000000001FC0BC
:104E100001C001C001C001C001C001C001C001C08A
:104E20003FFC000000000000000000000000000047
:104E300000000000002000700070000000003FF043
:104E400000700070007000700070007000700070E2
:104E500000700070007020E03FC000000000000003
:104E60000000000000001800180018001800183C8E
:104E7000187018E01B801F001B8019E0187018388C
:104E8000181C0000000000000000000000000000EE
:104E90000000000000001FC001C001C001C001C02F
:104EA00001C001C001C001C001C001C001C001C0FA
:104EB0003FFC0000000000000000000000000000B7
:104EC00000000000000000000000000000006F3C37
:104ED00079EE71CE718E718E718E718E718E718E32
:104EE000718E0000000000000000000000000000C3
:104EF00000000000000000000000000000003BF87F
:104F00003E383C1C381C381C381C381C381C381CDB
:104F1000381C00000000000000000000000000003D
:104F200000000000000000000000000000000FF082
:104F30001C3C381C700E700E700E700C381C1E78E5
:104F40000FE0000000000000000000000000000072
:104F500000000000000000000000000000003BF81E
:104F60003E1C3C1C380C380C380C380C381C3C7877
:104F70003FE0380038003800380000000000000032
:104F800000000000000000000000000000000FFC16
:104F90001C1C381C301C301C301C301C383C1CFCC9
:104FA0000F9C001C001C001C001C000000000000E6
:104FB000000000000000000000000000000019F8E0
:104FC0001F1C1C0C180E18001800180018001800E0
:104FD00018000000000000000000000000000000B9
:104FE00000000000000000000000000000000FF8BA
:104FF0001C0018001E000FC001F800180018183817
:105000001FF0000000000000000000000000000091
:1050100000000000000000000600060006007FFC03
:1050200006000600060006000600060007000784CA
:1050300001FC000000000000000000000000000073
:105040000000000000000000000000000000381C0C
:10505000381C381C381C381C381C381C383C1CFCCC
:105060000FDC000000000000000000000000000055
:105070000000000000000000000000000000700CB4
:10508000381C38181C380C300E70066007E003C05E
:1050900003C000000000000000000000000000004D
:1050A000000000000000000000000000000060069A
:1050B00060066186738E73CC33CC366C366C3C3CA8
:1050C0003C3800000000000000000000000000006C
:1050D0000000000000000000000000000000381C7C
:1050E0001C380E7007E003C003C007E00E701C38C8
:1050F000381E00000000000000000000000000005A
:105100000000000000000000000000000000700C23
:10511000381C38181C380C300E70066007E003C0CD
:1051200003C0038007000E007C00000000000000A8
:1051300000000000000000000000000000001FF858
:105140000038007000E001C0038007000C001FFC65
:105150003FFC000000000000000000000000000014
:1051600000000000007801F80380038003800380C2
:10517000038003003F003E000300038003800380A0
:1051800003800380038001C000F8000000000000DD
:105190000180018001800180018001800180018007
:1051A00001800180018001800180018001800180F7
:1051B000018001800180018001800000000000006A
:1051C000000000001E001F80018001C001C001C05E
:1051D00001C000C000FC007C00C001C001C001C0D3
:1051E00001C001C001C003801F00000000000000DA
:1051F00000000000000000000000000000000000AF
:1052000000001C003F0671CE60FC000000000000A2
:10521000000000000000000000000000000000008E
:10522000000000000000000000000000000000007E
:10523000000000000000000000000000000000006E
:10524000000000000000000000000000000000005E
:10525000000000000000000000000000000000004E
:10526000000000000000000000000000000000003E
:10527000000000000000000000000000000000002E
:105280000000000000000000000000000000003CE2
:1052900000003C00003C00003C00003C00003C00E2
:1052A000003C00003C00003C00003C00003C0000D2
:1052B0003C00003C00003C00000000000000003CFE
:1052C00000007E00003C0000000000000000000024
:1052D00000000000000000000000000000000000CE
:1052E000000000000000000000000000000003C3F8
:1052F000E003C3E003C3C003C3C003C3C003C3C010
:1053000003C1C00000000000000000000000000019
:10531000000000000000000000000000000000008D
:10532000000000000000000000000000000000007D
:10533000000000000000000000000000000000006D
:10534000000000000000000000000000000000005D
:105350000000000001E0E001C0E001C0E001C0E0A9
:105360003FFFFE3FFFFE03C1C00381C00381C003B6
:1053700081C07FFFFC7FFFFC07838007038007035A
:105380008007038007078000000000000000000085
:10539000000000000000000000000000000000000D
:1053A0000000000000000000000000000700000FE7
:1053B00000000E0001FFF007FFF01F0E001E1E0090
:1053C0001E1C001E1C000FDC0007FC0000FF8000FC
:1053D0003FF00038F800387800783C007078307181
:1053E000F83FFFE01FFF0000E00000E00000E000E9
:1053F00000000000000000000000000000000000AD
:1054000000000000000000000000000000000F800D
:105410000F3FE01E78703C7070707070E07071C06B
:105420003FE3801FC700000E00001C000078000052
:10543000F0F001E7FC03CF0E078E0E0F0E0E1E0ECE
:105440000E3C07BC7003F8000000000000000000E4
:10545000000000000000000000000000000000004C
:10546000000000000000000000000000000000003C
:105470000001FF0007FF800F03C00F03C00F03C030
:105480000F0780079F0003FE0003F0000FF83C3E6B
:105490007C3C3C1F3C780FF87807F87C01F03E0319
:1054A000F81FFFFC07FE1F000000000000000000C6
:1054B00000000000000000000000000000000000EC
:1054C0000000000000000000000000000000003E9E
:1054D00000003C00003C00003C00003C00003C00A0
:1054E000003C000000000000000000000000000080
:1054F00000000000000000000000000000000000AC
:10550000000000000000000000000000000000009B
:10551000000000000000000000000000000000008B
:1055200000000000000000000000000000800001FA
:10553000C0000780000F00001E00003C0000780043
:1055400000F00000E00001E00001E00001C0000305
:10555000C00003C00001C00001E00001E00000F055
:105560000000F000007800003C00001E00000F006A
:105570000007C00001C000000000000000000000A3
:10558000000000000000000000000000000003C058
:105590000001E00000F000007C00003E00001E0062
:1055A000000F000007800007800003800003C00098
:1055B00003C00003C00003C0000380000780000791
:1055C00080000F00001E00003C0000780000F0008A
:1055D00001E0000380000000000000000000000067
:1055E0000000000000000000000000000000001C9F
:1055F00000001C000018000F18F007DBE0007F001F
:1056000000FF0007DBE00E1870001800001C00000F
:105610001C0000000000000000000000000000006E
:10562000000000000000000000000000000000007A
:10563000000000000000000000000000000000006A
:10564000000000000000000000000000000000005A
:1056500000000000000000000000000000003C000E
:10566000003C00003C00003C00003C00003C003FCF
:10567000FFFC3FFFFC003C00003C00003C00003C05
:1056800000003C00000000000000000000000000DE
:10569000000000000000000000000000000000000A
:1056A00000000000000000000000000000000000FA
:1056B00000000000000000000000000000000000EA
:1056C00000000000000000000000000000000000DA
:1056D0000000000000000000000000007C00007ED0
:1056E00000007E00003E00001E00003C0000F800AC
:1056F00007E00004000000000000000000000000BF
:105700000000000000000000000000000000000099
:105710000000000000000000000000000000000089
:105720000000000000000000000000000000000376
:10573000FFE003FFE00000000000000000000000A8
:105740000000000000000000000000000000000059
:105750000000000000000000000000000000000049
:105760000000000000000000000000000000000039
:105770000000000000000000000000000000000029
:105780000000000000000000000000000000000019
:105790000000000000000000000000007C0000FE8F
:1057A0000000FE00007E000000000000000000007D
:1057B00000000000000000000000000000000000E9
:1057C00000000000000000000000000000000000D9
:1057D000780000F00000E00001E00003C00003805A
:1057E000000780000F00000E00001E00003C0000BB
:1057F000380000700000F00000E00001C00003C0AD
:10580000000780000700000F00001E00001C0000C1
:105810000000000000000000000000000000000088
:105820000000000000000000000000000000000078
:105830000000000001FFC007FFE00F00F01E00782D
:105840001E003C3C00FC3C07FC3C1FBC3C7C1C3D5F
:10585000F03C3FC03C3F003C1E00381E00780F80EB
:10586000F007FFE001FF80000000000000000000E2
:105870000000000000000000000000000000000028
:105880000000000000000000000000000000000018
:1058900000000000007E0003FE001FDE000E1E0060
:1058A000001E00001E00001E00001E00001E000062
:1058B0001E00001E00001E00001E00001E00001E34
:1058C000000FFFF80FFFF8000000000000000000CC
:1058D00000000000000000000000000000000000C8
:1058E00000000000000000000000000000000000B8
:1058F0000000000003FF800FFFE00E01F00000F049
:105900000000F00000F00000F00001E00003C00023
:105910000F80003E00007C0001F00003C0000F80FB
:10592000001FFFFC1FFFFC00000000000000000043
:105930000000000000000000000000000000000067
:105940000000000000000000000000000000000057
:10595000000000000FFF800FFFE00001E00000F0FA
:105960000000F00001E00003C001FF0001FFC000E3
:1059700003F0000078000078000078000078000153
:10598000F00FFFC00FFF000000000000000000004B
:105990000000000000000000000000000000000007
:1059A00000000000000000000000000000000000F7
:1059B00000000000000FC0001FC0003FC0007BC0FF
:1059C00000F3C001E3C003C3C00783C00F03C01CC2
:1059D00003C03803C07FFFFE7FFFFE0003C000034B
:1059E000C00003C00003C000000000000000000071
:1059F00000000000000000000000000000000000A7
:105A00000000000000000000000000000000000096
:105A1000000000000FFFE00FFFE00F00000F00008C
:105A20000F00000F00000F00000FFF800FFFE000CD
:105A300000F00000780000780000780000F000031B
:105A4000E00FFFC00FFE000000000000000000009B
:105A50000000000000000000000000000000000046
:105A60000000000000000000000000000000000036
:105A700000000000003FF001FFF003E0000780009D
:105A80000F00001E00001E1F001FFFE01FC1F81EB8
:105A900000781E003C1E003C1E003C0F00780F806A
:105AA000F807FFE001FF8000000000000000000098
:105AB00000000000000000000000000000000000E6
:105AC00000000000000000000000000000000000D6
:105AD000000000001FFFFC1FFFFC0000780000F02A
